{
  "_format": "hh-sol-artifact-1",
  "contractName": "GovernQueue",
  "sourceName": "contracts/pipelines/GovernQueue.sol",
  "abi": [
    {
      "inputs": [
        {
          "internalType": "address",
          "name": "_aclRoot",
          "type": "address"
        },
        {
          "components": [
            {
              "internalType": "uint256",
              "name": "executionDelay",
              "type": "uint256"
            },
            {
              "components": [
                {
                  "internalType": "address",
                  "name": "token",
                  "type": "address"
                },
                {
                  "internalType": "uint256",
                  "name": "amount",
                  "type": "uint256"
                }
              ],
              "internalType": "struct ERC3000Data.Collateral",
              "name": "scheduleDeposit",
              "type": "tuple"
            },
            {
              "components": [
                {
                  "internalType": "address",
                  "name": "token",
                  "type": "address"
                },
                {
                  "internalType": "uint256",
                  "name": "amount",
                  "type": "uint256"
                }
              ],
              "internalType": "struct ERC3000Data.Collateral",
              "name": "challengeDeposit",
              "type": "tuple"
            },
            {
              "internalType": "address",
              "name": "resolver",
              "type": "address"
            },
            {
              "internalType": "bytes",
              "name": "rules",
              "type": "bytes"
            },
            {
              "internalType": "uint256",
              "name": "maxCalldataSize",
              "type": "uint256"
            }
          ],
          "internalType": "struct ERC3000Data.Config",
          "name": "_initialConfig",
          "type": "tuple"
        }
      ],
      "stateMutability": "nonpayable",
      "type": "constructor"
    },
    {
      "anonymous": false,
      "inputs": [
        {
          "indexed": true,
          "internalType": "bytes32",
          "name": "containerHash",
          "type": "bytes32"
        },
        {
          "indexed": true,
          "internalType": "address",
          "name": "actor",
          "type": "address"
        },
        {
          "indexed": false,
          "internalType": "bytes",
          "name": "reason",
          "type": "bytes"
        },
        {
          "indexed": false,
          "internalType": "uint256",
          "name": "resolverId",
          "type": "uint256"
        },
        {
          "components": [
            {
              "internalType": "address",
              "name": "token",
              "type": "address"
            },
            {
              "internalType": "uint256",
              "name": "amount",
              "type": "uint256"
            }
          ],
          "indexed": false,
          "internalType": "struct ERC3000Data.Collateral",
          "name": "collateral",
          "type": "tuple"
        }
      ],
      "name": "Challenged",
      "type": "event"
    },
    {
      "anonymous": false,
      "inputs": [
        {
          "indexed": true,
          "internalType": "bytes32",
          "name": "configHash",
          "type": "bytes32"
        },
        {
          "indexed": true,
          "internalType": "address",
          "name": "actor",
          "type": "address"
        },
        {
          "components": [
            {
              "internalType": "uint256",
              "name": "executionDelay",
              "type": "uint256"
            },
            {
              "components": [
                {
                  "internalType": "address",
                  "name": "token",
                  "type": "address"
                },
                {
                  "internalType": "uint256",
                  "name": "amount",
                  "type": "uint256"
                }
              ],
              "internalType": "struct ERC3000Data.Collateral",
              "name": "scheduleDeposit",
              "type": "tuple"
            },
            {
              "components": [
                {
                  "internalType": "address",
                  "name": "token",
                  "type": "address"
                },
                {
                  "internalType": "uint256",
                  "name": "amount",
                  "type": "uint256"
                }
              ],
              "internalType": "struct ERC3000Data.Collateral",
              "name": "challengeDeposit",
              "type": "tuple"
            },
            {
              "internalType": "address",
              "name": "resolver",
              "type": "address"
            },
            {
              "internalType": "bytes",
              "name": "rules",
              "type": "bytes"
            },
            {
              "internalType": "uint256",
              "name": "maxCalldataSize",
              "type": "uint256"
            }
          ],
          "indexed": false,
          "internalType": "struct ERC3000Data.Config",
          "name": "config",
          "type": "tuple"
        }
      ],
      "name": "Configured",
      "type": "event"
    },
    {
      "anonymous": false,
      "inputs": [
        {
          "indexed": true,
          "internalType": "bytes32",
          "name": "containerHash",
          "type": "bytes32"
        },
        {
          "indexed": true,
          "internalType": "address",
          "name": "actor",
          "type": "address"
        }
      ],
      "name": "Executed",
      "type": "event"
    },
    {
      "anonymous": false,
      "inputs": [
        {
          "indexed": true,
          "internalType": "bytes4",
          "name": "role",
          "type": "bytes4"
        },
        {
          "indexed": true,
          "internalType": "address",
          "name": "actor",
          "type": "address"
        }
      ],
      "name": "Frozen",
      "type": "event"
    },
    {
      "anonymous": false,
      "inputs": [
        {
          "indexed": true,
          "internalType": "bytes4",
          "name": "role",
          "type": "bytes4"
        },
        {
          "indexed": true,
          "internalType": "address",
          "name": "actor",
          "type": "address"
        },
        {
          "indexed": true,
          "internalType": "address",
          "name": "who",
          "type": "address"
        },
        {
          "indexed": false,
          "internalType": "contract IACLOracle",
          "name": "oracle",
          "type": "address"
        }
      ],
      "name": "Granted",
      "type": "event"
    },
    {
      "anonymous": false,
      "inputs": [
        {
          "indexed": true,
          "internalType": "string",
          "name": "key",
          "type": "string"
        }
      ],
      "name": "Initialized",
      "type": "event"
    },
    {
      "anonymous": false,
      "inputs": [
        {
          "indexed": true,
          "internalType": "bytes4",
          "name": "sig",
          "type": "bytes4"
        },
        {
          "indexed": false,
          "internalType": "bytes",
          "name": "data",
          "type": "bytes"
        }
      ],
      "name": "ReceivedCallback",
      "type": "event"
    },
    {
      "anonymous": false,
      "inputs": [
        {
          "indexed": false,
          "internalType": "bytes4",
          "name": "sig",
          "type": "bytes4"
        },
        {
          "indexed": false,
          "internalType": "bytes4",
          "name": "magicNumber",
          "type": "bytes4"
        }
      ],
      "name": "RegisteredCallback",
      "type": "event"
    },
    {
      "anonymous": false,
      "inputs": [
        {
          "indexed": false,
          "internalType": "bytes4",
          "name": "interfaceId",
          "type": "bytes4"
        }
      ],
      "name": "RegisteredStandard",
      "type": "event"
    },
    {
      "anonymous": false,
      "inputs": [
        {
          "indexed": true,
          "internalType": "bytes32",
          "name": "containerHash",
          "type": "bytes32"
        },
        {
          "indexed": true,
          "internalType": "address",
          "name": "actor",
          "type": "address"
        },
        {
          "indexed": false,
          "internalType": "bool",
          "name": "approved",
          "type": "bool"
        }
      ],
      "name": "Resolved",
      "type": "event"
    },
    {
      "anonymous": false,
      "inputs": [
        {
          "indexed": true,
          "internalType": "bytes4",
          "name": "role",
          "type": "bytes4"
        },
        {
          "indexed": true,
          "internalType": "address",
          "name": "actor",
          "type": "address"
        },
        {
          "indexed": true,
          "internalType": "address",
          "name": "who",
          "type": "address"
        }
      ],
      "name": "Revoked",
      "type": "event"
    },
    {
      "anonymous": false,
      "inputs": [
        {
          "indexed": true,
          "internalType": "contract IArbitrator",
          "name": "arbitrator",
          "type": "address"
        },
        {
          "indexed": true,
          "internalType": "uint256",
          "name": "disputeId",
          "type": "uint256"
        },
        {
          "indexed": false,
          "internalType": "uint256",
          "name": "ruling",
          "type": "uint256"
        }
      ],
      "name": "Ruled",
      "type": "event"
    },
    {
      "anonymous": false,
      "inputs": [
        {
          "indexed": true,
          "internalType": "bytes32",
          "name": "containerHash",
          "type": "bytes32"
        },
        {
          "components": [
            {
              "internalType": "uint256",
              "name": "nonce",
              "type": "uint256"
            },
            {
              "internalType": "uint256",
              "name": "executionTime",
              "type": "uint256"
            },
            {
              "internalType": "address",
              "name": "submitter",
              "type": "address"
            },
            {
              "internalType": "contract IERC3000Executor",
              "name": "executor",
              "type": "address"
            },
            {
              "components": [
                {
                  "internalType": "address",
                  "name": "to",
                  "type": "address"
                },
                {
                  "internalType": "uint256",
                  "name": "value",
                  "type": "uint256"
                },
                {
                  "internalType": "bytes",
                  "name": "data",
                  "type": "bytes"
                }
              ],
              "internalType": "struct ERC3000Data.Action[]",
              "name": "actions",
              "type": "tuple[]"
            },
            {
              "internalType": "bytes32",
              "name": "allowFailuresMap",
              "type": "bytes32"
            },
            {
              "internalType": "bytes",
              "name": "proof",
              "type": "bytes"
            }
          ],
          "indexed": false,
          "internalType": "struct ERC3000Data.Payload",
          "name": "payload",
          "type": "tuple"
        }
      ],
      "name": "Scheduled",
      "type": "event"
    },
    {
      "anonymous": false,
      "inputs": [
        {
          "indexed": true,
          "internalType": "bytes32",
          "name": "containerHash",
          "type": "bytes32"
        },
        {
          "indexed": true,
          "internalType": "address",
          "name": "actor",
          "type": "address"
        },
        {
          "indexed": false,
          "internalType": "bytes",
          "name": "reason",
          "type": "bytes"
        }
      ],
      "name": "Vetoed",
      "type": "event"
    },
    {
      "inputs": [],
      "name": "ROOT_ROLE",
      "outputs": [
        {
          "internalType": "bytes4",
          "name": "",
          "type": "bytes4"
        }
      ],
      "stateMutability": "view",
      "type": "function"
    },
    {
      "inputs": [
        {
          "components": [
            {
              "internalType": "enum ACLData.BulkOp",
              "name": "op",
              "type": "uint8"
            },
            {
              "internalType": "bytes4",
              "name": "role",
              "type": "bytes4"
            },
            {
              "internalType": "address",
              "name": "who",
              "type": "address"
            }
          ],
          "internalType": "struct ACLData.BulkItem[]",
          "name": "items",
          "type": "tuple[]"
        }
      ],
      "name": "bulk",
      "outputs": [],
      "stateMutability": "nonpayable",
      "type": "function"
    },
    {
      "inputs": [
        {
          "components": [
            {
              "components": [
                {
                  "internalType": "uint256",
                  "name": "nonce",
                  "type": "uint256"
                },
                {
                  "internalType": "uint256",
                  "name": "executionTime",
                  "type": "uint256"
                },
                {
                  "internalType": "address",
                  "name": "submitter",
                  "type": "address"
                },
                {
                  "internalType": "contract IERC3000Executor",
                  "name": "executor",
                  "type": "address"
                },
                {
                  "components": [
                    {
                      "internalType": "address",
                      "name": "to",
                      "type": "address"
                    },
                    {
                      "internalType": "uint256",
                      "name": "value",
                      "type": "uint256"
                    },
                    {
                      "internalType": "bytes",
                      "name": "data",
                      "type": "bytes"
                    }
                  ],
                  "internalType": "struct ERC3000Data.Action[]",
                  "name": "actions",
                  "type": "tuple[]"
                },
                {
                  "internalType": "bytes32",
                  "name": "allowFailuresMap",
                  "type": "bytes32"
                },
                {
                  "internalType": "bytes",
                  "name": "proof",
                  "type": "bytes"
                }
              ],
              "internalType": "struct ERC3000Data.Payload",
              "name": "payload",
              "type": "tuple"
            },
            {
              "components": [
                {
                  "internalType": "uint256",
                  "name": "executionDelay",
                  "type": "uint256"
                },
                {
                  "components": [
                    {
                      "internalType": "address",
                      "name": "token",
                      "type": "address"
                    },
                    {
                      "internalType": "uint256",
                      "name": "amount",
                      "type": "uint256"
                    }
                  ],
                  "internalType": "struct ERC3000Data.Collateral",
                  "name": "scheduleDeposit",
                  "type": "tuple"
                },
                {
                  "components": [
                    {
                      "internalType": "address",
                      "name": "token",
                      "type": "address"
                    },
                    {
                      "internalType": "uint256",
                      "name": "amount",
                      "type": "uint256"
                    }
                  ],
                  "internalType": "struct ERC3000Data.Collateral",
                  "name": "challengeDeposit",
                  "type": "tuple"
                },
                {
                  "internalType": "address",
                  "name": "resolver",
                  "type": "address"
                },
                {
                  "internalType": "bytes",
                  "name": "rules",
                  "type": "bytes"
                },
                {
                  "internalType": "uint256",
                  "name": "maxCalldataSize",
                  "type": "uint256"
                }
              ],
              "internalType": "struct ERC3000Data.Config",
              "name": "config",
              "type": "tuple"
            }
          ],
          "internalType": "struct ERC3000Data.Container",
          "name": "_container",
          "type": "tuple"
        },
        {
          "internalType": "bytes",
          "name": "_reason",
          "type": "bytes"
        }
      ],
      "name": "challenge",
      "outputs": [
        {
          "internalType": "uint256",
          "name": "disputeId",
          "type": "uint256"
        }
      ],
      "stateMutability": "nonpayable",
      "type": "function"
    },
    {
      "inputs": [
        {
          "internalType": "bytes32",
          "name": "",
          "type": "bytes32"
        }
      ],
      "name": "challengerCache",
      "outputs": [
        {
          "internalType": "address",
          "name": "",
          "type": "address"
        }
      ],
      "stateMutability": "view",
      "type": "function"
    },
    {
      "inputs": [],
      "name": "configHash",
      "outputs": [
        {
          "internalType": "bytes32",
          "name": "",
          "type": "bytes32"
        }
      ],
      "stateMutability": "view",
      "type": "function"
    },
    {
      "inputs": [
        {
          "components": [
            {
              "internalType": "uint256",
              "name": "executionDelay",
              "type": "uint256"
            },
            {
              "components": [
                {
                  "internalType": "address",
                  "name": "token",
                  "type": "address"
                },
                {
                  "internalType": "uint256",
                  "name": "amount",
                  "type": "uint256"
                }
              ],
              "internalType": "struct ERC3000Data.Collateral",
              "name": "scheduleDeposit",
              "type": "tuple"
            },
            {
              "components": [
                {
                  "internalType": "address",
                  "name": "token",
                  "type": "address"
                },
                {
                  "internalType": "uint256",
                  "name": "amount",
                  "type": "uint256"
                }
              ],
              "internalType": "struct ERC3000Data.Collateral",
              "name": "challengeDeposit",
              "type": "tuple"
            },
            {
              "internalType": "address",
              "name": "resolver",
              "type": "address"
            },
            {
              "internalType": "bytes",
              "name": "rules",
              "type": "bytes"
            },
            {
              "internalType": "uint256",
              "name": "maxCalldataSize",
              "type": "uint256"
            }
          ],
          "internalType": "struct ERC3000Data.Config",
          "name": "_config",
          "type": "tuple"
        }
      ],
      "name": "configure",
      "outputs": [
        {
          "internalType": "bytes32",
          "name": "",
          "type": "bytes32"
        }
      ],
      "stateMutability": "nonpayable",
      "type": "function"
    },
    {
      "inputs": [
        {
          "internalType": "bytes32",
          "name": "",
          "type": "bytes32"
        },
        {
          "internalType": "contract IArbitrator",
          "name": "",
          "type": "address"
        }
      ],
      "name": "disputeItemCache",
      "outputs": [
        {
          "internalType": "uint256",
          "name": "",
          "type": "uint256"
        }
      ],
      "stateMutability": "view",
      "type": "function"
    },
    {
      "inputs": [
        {
          "components": [
            {
              "components": [
                {
                  "internalType": "uint256",
                  "name": "nonce",
                  "type": "uint256"
                },
                {
                  "internalType": "uint256",
                  "name": "executionTime",
                  "type": "uint256"
                },
                {
                  "internalType": "address",
                  "name": "submitter",
                  "type": "address"
                },
                {
                  "internalType": "contract IERC3000Executor",
                  "name": "executor",
                  "type": "address"
                },
                {
                  "components": [
                    {
                      "internalType": "address",
                      "name": "to",
                      "type": "address"
                    },
                    {
                      "internalType": "uint256",
                      "name": "value",
                      "type": "uint256"
                    },
                    {
                      "internalType": "bytes",
                      "name": "data",
                      "type": "bytes"
                    }
                  ],
                  "internalType": "struct ERC3000Data.Action[]",
                  "name": "actions",
                  "type": "tuple[]"
                },
                {
                  "internalType": "bytes32",
                  "name": "allowFailuresMap",
                  "type": "bytes32"
                },
                {
                  "internalType": "bytes",
                  "name": "proof",
                  "type": "bytes"
                }
              ],
              "internalType": "struct ERC3000Data.Payload",
              "name": "payload",
              "type": "tuple"
            },
            {
              "components": [
                {
                  "internalType": "uint256",
                  "name": "executionDelay",
                  "type": "uint256"
                },
                {
                  "components": [
                    {
                      "internalType": "address",
                      "name": "token",
                      "type": "address"
                    },
                    {
                      "internalType": "uint256",
                      "name": "amount",
                      "type": "uint256"
                    }
                  ],
                  "internalType": "struct ERC3000Data.Collateral",
                  "name": "scheduleDeposit",
                  "type": "tuple"
                },
                {
                  "components": [
                    {
                      "internalType": "address",
                      "name": "token",
                      "type": "address"
                    },
                    {
                      "internalType": "uint256",
                      "name": "amount",
                      "type": "uint256"
                    }
                  ],
                  "internalType": "struct ERC3000Data.Collateral",
                  "name": "challengeDeposit",
                  "type": "tuple"
                },
                {
                  "internalType": "address",
                  "name": "resolver",
                  "type": "address"
                },
                {
                  "internalType": "bytes",
                  "name": "rules",
                  "type": "bytes"
                },
                {
                  "internalType": "uint256",
                  "name": "maxCalldataSize",
                  "type": "uint256"
                }
              ],
              "internalType": "struct ERC3000Data.Config",
              "name": "config",
              "type": "tuple"
            }
          ],
          "internalType": "struct ERC3000Data.Container",
          "name": "_container",
          "type": "tuple"
        }
      ],
      "name": "execute",
      "outputs": [
        {
          "internalType": "bytes32",
          "name": "failureMap",
          "type": "bytes32"
        },
        {
          "internalType": "bytes[]",
          "name": "",
          "type": "bytes[]"
        }
      ],
      "stateMutability": "nonpayable",
      "type": "function"
    },
    {
      "inputs": [
        {
          "internalType": "bytes4",
          "name": "_role",
          "type": "bytes4"
        }
      ],
      "name": "freeze",
      "outputs": [],
      "stateMutability": "nonpayable",
      "type": "function"
    },
    {
      "inputs": [
        {
          "internalType": "bytes4",
          "name": "_role",
          "type": "bytes4"
        },
        {
          "internalType": "address",
          "name": "_who",
          "type": "address"
        }
      ],
      "name": "grant",
      "outputs": [],
      "stateMutability": "nonpayable",
      "type": "function"
    },
    {
      "inputs": [
        {
          "internalType": "bytes4",
          "name": "_role",
          "type": "bytes4"
        },
        {
          "internalType": "address",
          "name": "_who",
          "type": "address"
        },
        {
          "internalType": "contract IACLOracle",
          "name": "_oracle",
          "type": "address"
        }
      ],
      "name": "grantWithOracle",
      "outputs": [],
      "stateMutability": "nonpayable",
      "type": "function"
    },
    {
      "inputs": [
        {
          "internalType": "string",
          "name": "",
          "type": "string"
        }
      ],
      "name": "initBlocks",
      "outputs": [
        {
          "internalType": "uint256",
          "name": "",
          "type": "uint256"
        }
      ],
      "stateMutability": "view",
      "type": "function"
    },
    {
      "inputs": [
        {
          "internalType": "address",
          "name": "_aclRoot",
          "type": "address"
        },
        {
          "components": [
            {
              "internalType": "uint256",
              "name": "executionDelay",
              "type": "uint256"
            },
            {
              "components": [
                {
                  "internalType": "address",
                  "name": "token",
                  "type": "address"
                },
                {
                  "internalType": "uint256",
                  "name": "amount",
                  "type": "uint256"
                }
              ],
              "internalType": "struct ERC3000Data.Collateral",
              "name": "scheduleDeposit",
              "type": "tuple"
            },
            {
              "components": [
                {
                  "internalType": "address",
                  "name": "token",
                  "type": "address"
                },
                {
                  "internalType": "uint256",
                  "name": "amount",
                  "type": "uint256"
                }
              ],
              "internalType": "struct ERC3000Data.Collateral",
              "name": "challengeDeposit",
              "type": "tuple"
            },
            {
              "internalType": "address",
              "name": "resolver",
              "type": "address"
            },
            {
              "internalType": "bytes",
              "name": "rules",
              "type": "bytes"
            },
            {
              "internalType": "uint256",
              "name": "maxCalldataSize",
              "type": "uint256"
            }
          ],
          "internalType": "struct ERC3000Data.Config",
          "name": "_initialConfig",
          "type": "tuple"
        }
      ],
      "name": "initialize",
      "outputs": [],
      "stateMutability": "nonpayable",
      "type": "function"
    },
    {
      "inputs": [
        {
          "internalType": "bytes4",
          "name": "_role",
          "type": "bytes4"
        }
      ],
      "name": "isFrozen",
      "outputs": [
        {
          "internalType": "bool",
          "name": "",
          "type": "bool"
        }
      ],
      "stateMutability": "view",
      "type": "function"
    },
    {
      "inputs": [],
      "name": "nonce",
      "outputs": [
        {
          "internalType": "uint256",
          "name": "",
          "type": "uint256"
        }
      ],
      "stateMutability": "view",
      "type": "function"
    },
    {
      "inputs": [
        {
          "internalType": "bytes32",
          "name": "",
          "type": "bytes32"
        }
      ],
      "name": "queue",
      "outputs": [
        {
          "internalType": "enum GovernQueueStateLib.State",
          "name": "state",
          "type": "uint8"
        }
      ],
      "stateMutability": "view",
      "type": "function"
    },
    {
      "inputs": [
        {
          "components": [
            {
              "components": [
                {
                  "internalType": "uint256",
                  "name": "nonce",
                  "type": "uint256"
                },
                {
                  "internalType": "uint256",
                  "name": "executionTime",
                  "type": "uint256"
                },
                {
                  "internalType": "address",
                  "name": "submitter",
                  "type": "address"
                },
                {
                  "internalType": "contract IERC3000Executor",
                  "name": "executor",
                  "type": "address"
                },
                {
                  "components": [
                    {
                      "internalType": "address",
                      "name": "to",
                      "type": "address"
                    },
                    {
                      "internalType": "uint256",
                      "name": "value",
                      "type": "uint256"
                    },
                    {
                      "internalType": "bytes",
                      "name": "data",
                      "type": "bytes"
                    }
                  ],
                  "internalType": "struct ERC3000Data.Action[]",
                  "name": "actions",
                  "type": "tuple[]"
                },
                {
                  "internalType": "bytes32",
                  "name": "allowFailuresMap",
                  "type": "bytes32"
                },
                {
                  "internalType": "bytes",
                  "name": "proof",
                  "type": "bytes"
                }
              ],
              "internalType": "struct ERC3000Data.Payload",
              "name": "payload",
              "type": "tuple"
            },
            {
              "components": [
                {
                  "internalType": "uint256",
                  "name": "executionDelay",
                  "type": "uint256"
                },
                {
                  "components": [
                    {
                      "internalType": "address",
                      "name": "token",
                      "type": "address"
                    },
                    {
                      "internalType": "uint256",
                      "name": "amount",
                      "type": "uint256"
                    }
                  ],
                  "internalType": "struct ERC3000Data.Collateral",
                  "name": "scheduleDeposit",
                  "type": "tuple"
                },
                {
                  "components": [
                    {
                      "internalType": "address",
                      "name": "token",
                      "type": "address"
                    },
                    {
                      "internalType": "uint256",
                      "name": "amount",
                      "type": "uint256"
                    }
                  ],
                  "internalType": "struct ERC3000Data.Collateral",
                  "name": "challengeDeposit",
                  "type": "tuple"
                },
                {
                  "internalType": "address",
                  "name": "resolver",
                  "type": "address"
                },
                {
                  "internalType": "bytes",
                  "name": "rules",
                  "type": "bytes"
                },
                {
                  "internalType": "uint256",
                  "name": "maxCalldataSize",
                  "type": "uint256"
                }
              ],
              "internalType": "struct ERC3000Data.Config",
              "name": "config",
              "type": "tuple"
            }
          ],
          "internalType": "struct ERC3000Data.Container",
          "name": "_container",
          "type": "tuple"
        },
        {
          "internalType": "uint256",
          "name": "_disputeId",
          "type": "uint256"
        }
      ],
      "name": "resolve",
      "outputs": [
        {
          "internalType": "bytes32",
          "name": "failureMap",
          "type": "bytes32"
        },
        {
          "internalType": "bytes[]",
          "name": "",
          "type": "bytes[]"
        }
      ],
      "stateMutability": "nonpayable",
      "type": "function"
    },
    {
      "inputs": [
        {
          "internalType": "bytes4",
          "name": "_role",
          "type": "bytes4"
        },
        {
          "internalType": "address",
          "name": "_who",
          "type": "address"
        }
      ],
      "name": "revoke",
      "outputs": [],
      "stateMutability": "nonpayable",
      "type": "function"
    },
    {
      "inputs": [
        {
          "internalType": "bytes4",
          "name": "",
          "type": "bytes4"
        },
        {
          "internalType": "address",
          "name": "",
          "type": "address"
        }
      ],
      "name": "roles",
      "outputs": [
        {
          "internalType": "address",
          "name": "",
          "type": "address"
        }
      ],
      "stateMutability": "view",
      "type": "function"
    },
    {
      "inputs": [
        {
          "components": [
            {
              "components": [
                {
                  "internalType": "uint256",
                  "name": "nonce",
                  "type": "uint256"
                },
                {
                  "internalType": "uint256",
                  "name": "executionTime",
                  "type": "uint256"
                },
                {
                  "internalType": "address",
                  "name": "submitter",
                  "type": "address"
                },
                {
                  "internalType": "contract IERC3000Executor",
                  "name": "executor",
                  "type": "address"
                },
                {
                  "components": [
                    {
                      "internalType": "address",
                      "name": "to",
                      "type": "address"
                    },
                    {
                      "internalType": "uint256",
                      "name": "value",
                      "type": "uint256"
                    },
                    {
                      "internalType": "bytes",
                      "name": "data",
                      "type": "bytes"
                    }
                  ],
                  "internalType": "struct ERC3000Data.Action[]",
                  "name": "actions",
                  "type": "tuple[]"
                },
                {
                  "internalType": "bytes32",
                  "name": "allowFailuresMap",
                  "type": "bytes32"
                },
                {
                  "internalType": "bytes",
                  "name": "proof",
                  "type": "bytes"
                }
              ],
              "internalType": "struct ERC3000Data.Payload",
              "name": "payload",
              "type": "tuple"
            },
            {
              "components": [
                {
                  "internalType": "uint256",
                  "name": "executionDelay",
                  "type": "uint256"
                },
                {
                  "components": [
                    {
                      "internalType": "address",
                      "name": "token",
                      "type": "address"
                    },
                    {
                      "internalType": "uint256",
                      "name": "amount",
                      "type": "uint256"
                    }
                  ],
                  "internalType": "struct ERC3000Data.Collateral",
                  "name": "scheduleDeposit",
                  "type": "tuple"
                },
                {
                  "components": [
                    {
                      "internalType": "address",
                      "name": "token",
                      "type": "address"
                    },
                    {
                      "internalType": "uint256",
                      "name": "amount",
                      "type": "uint256"
                    }
                  ],
                  "internalType": "struct ERC3000Data.Collateral",
                  "name": "challengeDeposit",
                  "type": "tuple"
                },
                {
                  "internalType": "address",
                  "name": "resolver",
                  "type": "address"
                },
                {
                  "internalType": "bytes",
                  "name": "rules",
                  "type": "bytes"
                },
                {
                  "internalType": "uint256",
                  "name": "maxCalldataSize",
                  "type": "uint256"
                }
              ],
              "internalType": "struct ERC3000Data.Config",
              "name": "config",
              "type": "tuple"
            }
          ],
          "internalType": "struct ERC3000Data.Container",
          "name": "_container",
          "type": "tuple"
        }
      ],
      "name": "schedule",
      "outputs": [
        {
          "internalType": "bytes32",
          "name": "containerHash",
          "type": "bytes32"
        }
      ],
      "stateMutability": "nonpayable",
      "type": "function"
    },
    {
      "inputs": [
        {
          "internalType": "bytes4",
          "name": "_interfaceId",
          "type": "bytes4"
        }
      ],
      "name": "supportsInterface",
      "outputs": [
        {
          "internalType": "bool",
          "name": "",
          "type": "bool"
        }
      ],
      "stateMutability": "view",
      "type": "function"
    },
    {
      "inputs": [
        {
          "components": [
            {
              "components": [
                {
                  "internalType": "uint256",
                  "name": "nonce",
                  "type": "uint256"
                },
                {
                  "internalType": "uint256",
                  "name": "executionTime",
                  "type": "uint256"
                },
                {
                  "internalType": "address",
                  "name": "submitter",
                  "type": "address"
                },
                {
                  "internalType": "contract IERC3000Executor",
                  "name": "executor",
                  "type": "address"
                },
                {
                  "components": [
                    {
                      "internalType": "address",
                      "name": "to",
                      "type": "address"
                    },
                    {
                      "internalType": "uint256",
                      "name": "value",
                      "type": "uint256"
                    },
                    {
                      "internalType": "bytes",
                      "name": "data",
                      "type": "bytes"
                    }
                  ],
                  "internalType": "struct ERC3000Data.Action[]",
                  "name": "actions",
                  "type": "tuple[]"
                },
                {
                  "internalType": "bytes32",
                  "name": "allowFailuresMap",
                  "type": "bytes32"
                },
                {
                  "internalType": "bytes",
                  "name": "proof",
                  "type": "bytes"
                }
              ],
              "internalType": "struct ERC3000Data.Payload",
              "name": "payload",
              "type": "tuple"
            },
            {
              "components": [
                {
                  "internalType": "uint256",
                  "name": "executionDelay",
                  "type": "uint256"
                },
                {
                  "components": [
                    {
                      "internalType": "address",
                      "name": "token",
                      "type": "address"
                    },
                    {
                      "internalType": "uint256",
                      "name": "amount",
                      "type": "uint256"
                    }
                  ],
                  "internalType": "struct ERC3000Data.Collateral",
                  "name": "scheduleDeposit",
                  "type": "tuple"
                },
                {
                  "components": [
                    {
                      "internalType": "address",
                      "name": "token",
                      "type": "address"
                    },
                    {
                      "internalType": "uint256",
                      "name": "amount",
                      "type": "uint256"
                    }
                  ],
                  "internalType": "struct ERC3000Data.Collateral",
                  "name": "challengeDeposit",
                  "type": "tuple"
                },
                {
                  "internalType": "address",
                  "name": "resolver",
                  "type": "address"
                },
                {
                  "internalType": "bytes",
                  "name": "rules",
                  "type": "bytes"
                },
                {
                  "internalType": "uint256",
                  "name": "maxCalldataSize",
                  "type": "uint256"
                }
              ],
              "internalType": "struct ERC3000Data.Config",
              "name": "config",
              "type": "tuple"
            }
          ],
          "internalType": "struct ERC3000Data.Container",
          "name": "_container",
          "type": "tuple"
        },
        {
          "internalType": "bytes",
          "name": "_reason",
          "type": "bytes"
        }
      ],
      "name": "veto",
      "outputs": [],
      "stateMutability": "nonpayable",
      "type": "function"
    }
  ],
  "bytecode": "0x60806040523480156200001157600080fd5b506040516200406b3803806200406b83398101604081905262000034916200082f565b8180600260405162000046906200093e565b90815260200160405180910390205460001415620000785762000072816001600160e01b03620000ec16565b620000cc565b6001600160a01b0381811660009081526000805160206200402b833981519152602052604090205416600214620000cc5760405162461bcd60e51b8152600401620000c39062000a08565b60405180910390fd5b50620000e4905082826001600160e01b03620001bd16565b505062000b5b565b604051806040016040528060038152602001621858db60ea1b8152506002816040516200011a919062000920565b9081526020016040518091039020546000146200014b5760405162461bcd60e51b8152600401620000c390620009c6565b436002826040516200015e919062000920565b908152604051908190036020019020556200018a63161b7d8160e21b836001600160e01b036200033416565b806040516200019a919062000920565b604051908190038120906000805160206200404b83398151915290600090a25050565b816002604051620001ce906200093e565b908152602001604051809103902054600014156200020057620001fa816001600160e01b03620000ec16565b6200024b565b6001600160a01b0381811660009081526000805160206200402b8339815191526020526040902054166002146200024b5760405162461bcd60e51b8152600401620000c39062000a08565b60405180604001604052806005815260200164717565756560d81b8152506002816040516200027b919062000920565b908152602001604051809103902054600014620002ac5760405162461bcd60e51b8152600401620000c390620009c6565b43600282604051620002bf919062000920565b90815260405190819003602001902055620002e3836001600160e01b036200034f16565b50620002ff63d311828160e01b6001600160e01b03620005a616565b806040516200030f919062000920565b604051908190038120906000805160206200404b83398151915290600090a250505050565b6200034b828260026001600160e01b036200060716565b5050565b60008160400151602001516000146200044d57600060608360400151600001516001600160a01b03166370a0823160e01b306040516024016200039391906200094d565b60408051601f198184030181529181526020820180516001600160e01b03166001600160e01b0319909416939093179092529051620003d3919062000920565b6000604051808303816000865af19150503d806000811462000412576040519150601f19603f3d011682016040523d82523d6000602084013e62000417565b606091505b50915091508180156200042b575060008151115b6200044a5760405162461bcd60e51b8152600401620000c39062000976565b50505b6020808301510151156200054657600060608360200151600001516001600160a01b03166370a0823160e01b306040516024016200048c91906200094d565b60408051601f198184030181529181526020820180516001600160e01b03166001600160e01b0319909416939093179092529051620004cc919062000920565b6000604051808303816000865af19150503d80600081146200050b576040519150601f19603f3d011682016040523d82523d6000602084013e62000510565b606091505b509150915081801562000524575060008151115b620005435760405162461bcd60e51b8152600401620000c39062000976565b50505b6200055c82620006f160201b620014e71760201c565b60048190556040513391907f844435c59f7ccdf12de134e8f9b3b7d664fe9f06e3263680779599ba4097bc3f906200059690869062000a68565b60405180910390a3505060045490565b6001600160e01b0319811660009081526020819052604090819020805460ff19166001179055517fbf5e1f87f5ab65b58074cd29244d7c487a948983cda4b932e0f966b62bd34aca90620005fc90839062000961565b60405180910390a150565b6200061b836001600160e01b036200072316565b156200063b5760405162461bcd60e51b8152600401620000c390620009a1565b6001600160a01b03821660011415620006685760405162461bcd60e51b8152600401620000c39062000a3f565b6001600160e01b0319831660008181526003602090815260408083206001600160a01b03878116808652919093529281902080546001600160a01b0319169286169290921790915551909133917fc62063b81f7036fd97a0dc546516e99f11004d2d76ca0fddd3866346c86e709190620006e49086906200094d565b60405180910390a4505050565b60008160405160200162000706919062000a68565b604051602081830303815290604052805190602001209050919050565b6001600160e01b031916600090815260036020908152604080832060018085529252909120546001600160a01b03161490565b80516001600160a01b03811681146200076e57600080fd5b92915050565b600082601f83011262000785578081fd5b81516001600160401b038111156200079b578182fd5b620007b0601f8201601f191660200162000b01565b9150808252836020828501011115620007c857600080fd5b620007db81602084016020860162000b28565b5092915050565b600060408284031215620007f4578081fd5b62000800604062000b01565b82519091506001600160a01b03811681146200081b57600080fd5b808252506020820151602082015292915050565b6000806040838503121562000842578182fd5b6200084e848462000756565b60208401519092506001600160401b03808211156200086b578283fd5b81850161010081880312156200087f578384fd5b6200088b60c062000b01565b925080518352620008a08760208301620007e2565b6020840152620008b48760608301620007e2565b6040840152620008c88760a0830162000756565b606084015260c081015182811115620008df578485fd5b620008ed8882840162000774565b60808501525060e0015160a083015250919491935090915050565b80516001600160a01b03168252602090810151910152565b600082516200093481846020870162000b28565b9190910192915050565b621858db60ea1b815260030190565b6001600160a01b0391909116815260200190565b6001600160e01b031991909116815260200190565b60208082526011908201527071756575653a2062616420636f6e66696760781b604082015260600190565b6020808252600b908201526a30b1b61d10333937bd32b760a91b604082015260600190565b60208082526022908201527f696e697469616c697a61626c653a20616c726561647920696e697469616c697a604082015261195960f21b606082015260800190565b6020808252601c908201527f61636c3a20696e697469616c20726f6f74206d6973616c69676e656400000000604082015260600190565b6020808252600f908201526e61636c3a2062616420667265657a6560881b604082015260600190565b60006020825282516020830152602083015162000a89604084018262000908565b50604083015162000a9e608084018262000908565b5060608301516001600160a01b031660c0830152608083015161010060e084018190528151610120850181905261014062000ae0828288016020870162000b28565b60a0969096015191850191909152601f01601f191690920190920192915050565b6040518181016001600160401b038111828210171562000b2057600080fd5b604052919050565b60005b8381101562000b4557818101518382015260200162000b2b565b8381111562000b55576000848401525b50505050565b6134c08062000b6b6000396000f3fe608060405234801561001057600080fd5b50600436106101825760003560e01c80637e8c7f08116100d8578063affed0e01161008c578063c832048011610066578063c832048014610334578063cc1d4cab14610347578063e1f1176d1461035a57610182565b8063affed0e014610306578063bdf9a7261461030e578063c8182af01461032157610182565b806396fc8abd116100bd57806396fc8abd146102c0578063a157a10d146102e0578063a2157227146102f357610182565b80637e8c7f08146102985780638f8b35b2146102ad57610182565b80633e2da6a91161013a5780635a08160b116101145780635a08160b146102525780637744efda146102655780637c10dea61461027857610182565b80633e2da6a914610219578063495a98251461022c578063588497341461023f57610182565b80631c47671b1161016b5780631c47671b146101d15780631f13405b146101e65780633da956aa1461020657610182565b806301ffc9a71461018757806314d56921146101b0575b600080fd5b61019a610195366004612840565b610362565b6040516101a79190612d47565b60405180910390f35b6101c36101be366004612a1b565b610394565b6040516101a7929190612d5b565b6101e46101df3660046126d6565b6105cb565b005b6101f96101f43660046129c4565b6106ec565b6040516101a79190612d52565b6101c3610214366004612991565b610b89565b6101f9610227366004612811565b610c7e565b61019a61023a366004612840565b610c9b565b6101e461024d36600461285c565b610cce565b6101e46102603660046129c4565b610d43565b6101f961027336600461295e565b610efc565b61028b610286366004612763565b610f74565b6040516101a79190612e63565b6102a0610f89565b6040516101a79190612de1565b6101e46102bb36600461265b565b610f94565b6102d36102ce36600461285c565b61112d565b6040516101a79190612cbe565b6101e46102ee36600461285c565b611153565b6101e4610301366004612889565b6111c3565b6101f9611234565b6101e461031c366004612840565b61123a565b6102d361032f366004612763565b6112ad565b6101f9610342366004612991565b6112c8565b6101f96103553660046128d3565b6114c4565b6101f96114e1565b6001600160e01b0319811660009081526020819052604081205460ff168061038e575061038e82611517565b92915050565b6000606060006103a385611549565b6020808701516060015160008381526008835260408082206001600160a01b038416835290935291909120549192509060018601146103fd5760405162461bcd60e51b81526004016103f490612f6c565b60405180910390fd5b60008281526008602090815260408083206001600160a01b038516845282528083208390558483526006909152902061043d90600263ffffffff61156d16565b600080826001600160a01b031663db18af6c886040518263ffffffff1660e01b815260040161046c9190612d52565b6040805180830381600087803b15801561048557600080fd5b505af1158015610499573d6000803e3d6000fd5b505050506040513d601f19601f820116820180604052508101906104bd91906126a9565b90925090506001600160a01b03821630146104ea5760405162461bcd60e51b81526004016103f4906131ef565b6004811461051a816104fd576004610500565b60035b60008781526006602052604090209063ffffffff6115a616565b336001600160a01b0316857f027d8a5d945eb361475964ed2c71b8332b27af2d630ab5daf829d67afd2584e6836040516105549190612d47565b60405180910390a387846001600160a01b03167f56c8631a8915c0d362dbe57a61215fdde954f73f81c8a3a1f55572fb015207b1846040516105969190612d52565b60405180910390a380156105bb576105ad896115c7565b9650965050505050506105c4565b6105ad8961167d565b9250929050565b60408051602036601f810182900482028301820190935282825263161b7d8160e21b9261061592849233926000918190840183828082843760009201919091525061172292505050565b6106315760405162461bcd60e51b81526004016103f490612f35565b60005b828110156106e65761064461229c565b84848381811061065057fe5b9050606002018036038101906106669190612906565b905060008151600281111561067757fe5b14156106945761068f81602001518260400151611768565b6106dd565b6001815160028111156106a357fe5b14156106bb5761068f81602001518260400151611774565b6002815160028111156106ca57fe5b14156106dd576106dd8160200151611812565b50600101610634565b50505050565b6000631f13405b60e01b61073881336000368080601f01602080910402602001604051908101604052809392919081815260200183838082843760009201919091525061172292505050565b6107545760405162461bcd60e51b81526004016103f490612f35565b600061075f85611549565b6000818152600760209081526040808320805473ffffffffffffffffffffffffffffffffffffffff191633179055600690915290209091506107aa906001600263ffffffff6118a716565b6107b26122be565b506020850151604001516107cc813363ffffffff6118bb16565b600086602001516060015190506000806000836001600160a01b0316637b751b9e6040518163ffffffff1660e01b815260040160606040518083038186803b15801561081757600080fd5b505afa15801561082b573d6000803e3d6000fd5b505050506040513d601f19601f8201168201806040525081019061084f9190612619565b919450925090506108716001600160a01b03831633308463ffffffff61195e16565b61088d5760405162461bcd60e51b81526004016103f490613048565b6108a76001600160a01b038316848363ffffffff6119dc16565b6108c35760405162461bcd60e51b81526004016103f4906130ed565b836001600160a01b031663c13517e160028c6040516020016108e59190613315565b6040516020818303038152906040526040518363ffffffff1660e01b8152600401610911929190612e77565b602060405180830381600087803b15801561092b57600080fd5b505af115801561093f573d6000803e3d6000fd5b505050506040513d601f19601f820116820180604052508101906109639190612a5e565b97506109806001600160a01b03831684600063ffffffff6119dc16565b61099c5760405162461bcd60e51b81526004016103f490613011565b895160408082015160c09092015190517f7cb57c640000000000000000000000000000000000000000000000000000000081526001600160a01b03871692637cb57c64926109f0928d929190600401613361565b600060405180830381600087803b158015610a0a57600080fd5b505af1158015610a1e573d6000803e3d6000fd5b50506040517f7cb57c640000000000000000000000000000000000000000000000000000000081526001600160a01b0387169250637cb57c649150610a6b908b9033908e90600401613361565b600060405180830381600087803b158015610a8557600080fd5b505af1158015610a99573d6000803e3d6000fd5b50506040517f7e9adccf0000000000000000000000000000000000000000000000000000000081526001600160a01b0387169250637e9adccf9150610ae2908b90600401612d52565b600060405180830381600087803b158015610afc57600080fd5b505af1158015610b10573d6000803e3d6000fd5b50505060008781526008602090815260408083206001600160a01b03891684529091529081902060018b0190555133915087907f429df837eb45b6713f725a0d3e57db939fd7dd7d58bb3cd967fa37091572db9f90610b74908d908d908b90612e3b565b60405180910390a35050505050505092915050565b60006060633da956aa60e01b610bd781336000368080601f01602080910402602001604051908101604052809392919081815260200183838082843760009201919091525061172292505050565b610bf35760405162461bcd60e51b81526004016103f490612f35565b835160200151421015610c185760405162461bcd60e51b81526004016103f490613181565b6000610c2385611549565b6000818152600660208190526040909120919250610c4a919060019063ffffffff6118a716565b8451604001516020808701510151610c679163ffffffff611a5716565b8451610c739082611aeb565b935093505050915091565b600860209081526000928352604080842090915290825290205481565b6001600160e01b031916600090815260036020908152604080832060018085529252909120546001600160a01b03161490565b60408051602036601f810182900482028301820190935282825263161b7d8160e21b92610d1892849233926000918190840183828082843760009201919091525061172292505050565b610d345760405162461bcd60e51b81526004016103f490612f35565b610d3e8383611774565b505050565b635a08160b60e01b610d8d81336000368080601f01602080910402602001604051908101604052809392919081815260200183838082843760009201919091525061172292505050565b610da95760405162461bcd60e51b81526004016103f490612f35565b6000610db484611549565b60008181526006602052604090209091506002815460ff166006811115610dd757fe5b1415610e8357610df0816002600563ffffffff6118a716565b6000828152600760209081526040808320805473ffffffffffffffffffffffffffffffffffffffff198116909155600883528184208984018051606001516001600160a01b03908116875291855283862095909555895190920151935190920151911691610e64919063ffffffff611a5716565b602086015160400151610e7d908263ffffffff611a5716565b50610eb3565b610e96816001600563ffffffff6118a716565b8451604001516020808701510151610eb39163ffffffff611a5716565b336001600160a01b0316827fe2530b9681f9726904f9ca7fe725c0c53ea1b72370981ac6a5beaa9758c8c35686604051610eed9190612e28565b60405180910390a35050505050565b6000637744efda60e01b610f4881336000368080601f01602080910402602001604051908101604052809392919081815260200183838082843760009201919091525061172292505050565b610f645760405162461bcd60e51b81526004016103f490612f35565b610f6d83611bba565b9392505050565b60066020526000908152604090205460ff1681565b63161b7d8160e21b81565b816002604051610fa390612c2d565b90815260200160405180910390205460001415610fc857610fc381611e16565b611021565b6001600160a01b0381811660009081527fd87da3e1f08043464b74e6b0861ccd8d8a5174e228287ac9b9f6efc1673da4ec6020526040902054166002146110215760405162461bcd60e51b81526004016103f49061325d565b6040518060400160405280600581526020017f71756575650000000000000000000000000000000000000000000000000000008152506002816040516110679190612c11565b9081526020016040518091039020546000146110955760405162461bcd60e51b81526004016103f490613124565b436002826040516110a69190612c11565b908152604051908190036020019020556110bf83611bba565b506110e97fd311828100000000000000000000000000000000000000000000000000000000611efe565b806040516110f79190612c11565b604051908190038120907f7bc2a48a4a566e237a12186f19d985b0f76afc9d5290601edac19876253670c290600090a250505050565b60036020908152600092835260408084209091529082529020546001600160a01b031681565b60408051602036601f810182900482028301820190935282825263161b7d8160e21b9261119d92849233926000918190840183828082843760009201919091525061172292505050565b6111b95760405162461bcd60e51b81526004016103f490612f35565b610d3e8383611768565b60408051602036601f810182900482028301820190935282825263161b7d8160e21b9261120d92849233926000918190840183828082843760009201919091525061172292505050565b6112295760405162461bcd60e51b81526004016103f490612f35565b6106e6848484611f5d565b60055481565b60408051602036601f810182900482028301820190935282825263161b7d8160e21b9261128492849233926000918190840183828082843760009201919091525061172292505050565b6112a05760405162461bcd60e51b81526004016103f490612f35565b6112a982611812565b5050565b6007602052600090815260409020546001600160a01b031681565b600063c832048060e01b61131481336000368080601f01602080910402602001604051908101604052809392919081815260200183838082843760009201919091525061172292505050565b6113305760405162461bcd60e51b81526004016103f490612f35565b60058054600101908190558351511461135b5760405162461bcd60e51b81526004016103f490612fa3565b600061136a84602001516114e7565b9050600454811461138d5760405162461bcd60e51b81526004016103f490612efe565b6020840151516113a3904263ffffffff61204116565b84516020015110156113c75760405162461bcd60e51b81526004016103f490612fda565b8351604001516001600160a01b031633146113f45760405162461bcd60e51b81526004016103f49061307f565b602084015160a00151369081111561141e5760405162461bcd60e51b81526004016103f490613226565b61143461142e8660000151612064565b836120cc565b60008181526006602052604081209195506114579190600163ffffffff6118a716565b61145f6122be565b50602080860151015185516040015161147f90829063ffffffff6118bb16565b847f67f87ff46443c95843c7bd72a026dd23ba0015528ce9f8f15c5c6917645034ef87600001516040516114b3919061334e565b60405180910390a250505050919050565b805160208183018101805160028252928201919093012091525481565b60045481565b6000816040516020016114fa9190613302565b604051602081830303815290604052805190602001209050919050565b6001600160e01b031981167f01ffc9a70000000000000000000000000000000000000000000000000000000014919050565b600061038e61155b8360000151612064565b61156884602001516114e7565b6120cc565b80600681111561157957fe5b825460ff16600681111561158957fe5b146112a95760405162461bcd60e51b81526004016103f490612ec7565b81548190839060ff191660018360068111156115be57fe5b02179055505050565b6000606060006115d684611549565b60008181526006602081905260409091209192506115fd919060039063ffffffff6118a716565b600081815260076020908152604091829020805473ffffffffffffffffffffffffffffffffffffffff1916905585519091015185820151909101516116479163ffffffff611a5716565b83516040908101516020860151909101516116679163ffffffff611a5716565b83516116739082611aeb565b9250925050915091565b60006060600061168c84611549565b60008181526006602052604090209091506116b0906004600563ffffffff6118a716565b6000818152600760209081526040909120805473ffffffffffffffffffffffffffffffffffffffff19811690915585820151909101516001600160a01b0390911690611702908263ffffffff611a5716565b60208501516040015161171b908263ffffffff611a5716565b5050915091565b600061172f848484612107565b806117605750611760847fffffffffffffffffffffffffffffffffffffffffffffffffffffffffffffffff84612107565b949350505050565b6112a982826002611f5d565b61177d82610c9b565b1561179a5760405162461bcd60e51b81526004016103f4906130b6565b6001600160e01b0319821660008181526003602090815260408083206001600160a01b0386168085529252808320805473ffffffffffffffffffffffffffffffffffffffff19169055519092339290917f682f2c466c1e9f6883eb72cbced01373e1cb18b05ae5c8bc04dc73d73e29f8cd9190a45050565b61181b81610c9b565b156118385760405162461bcd60e51b81526004016103f4906130b6565b6001600160e01b03198116600081815260036020908152604080832060018085529252808320805473ffffffffffffffffffffffffffffffffffffffff1916909217909155513392917f049c6b8b07a879425742523fa80f8ffb25e39ad518c93a5896a0df19518397e591a350565b6118b1838361156d565b610d3e83826115a6565b6020820151156112a957815160208301516118ea906001600160a01b038316908490309063ffffffff61195e16565b6119065760405162461bcd60e51b81526004016103f4906131b8565b816001600160a01b031683600001516001600160a01b03167f989eaa915cbb416ea3d6f9a63b1a3de51770c7674b11fe21ecdf76b4e1d1391085602001516040516119519190612d52565b60405180910390a3505050565b600060606323b872dd60e01b85858560405160240161197f93929190612cd2565b60408051601f198184030181529190526020810180517bffffffffffffffffffffffffffffffffffffffffffffffffffffffff166001600160e01b03199093169290921790915290506119d28682612212565b9695505050505050565b6000606063095ea7b360e01b84846040516024016119fb929190612cf6565b60408051601f198184030181529190526020810180517bffffffffffffffffffffffffffffffffffffffffffffffffffffffff166001600160e01b0319909316929092179091529050611a4e8582612212565b95945050505050565b6020820151156112a95781516020830151611a84906001600160a01b03831690849063ffffffff61227716565b611aa05760405162461bcd60e51b81526004016103f490612e90565b816001600160a01b031683600001516001600160a01b03167fe6e0ef9cd056ca98561ca60e347ada61e1ede2f1142a078951b7a52e1e508e6085602001516040516119519190612d52565b604051600090606090339084907f59c3746e635078efc737fb3f37dd8188203b8df10bbad35878a7d156f4f51c41908590a383606001516001600160a01b031663c2d85afc85608001518660a00151866040518463ffffffff1660e01b8152600401611b5993929190612d22565b600060405180830381600087803b158015611b7357600080fd5b505af1158015611b87573d6000803e3d6000fd5b505050506040513d6000823e601f3d908101601f19168201604052611baf919081019061277b565b915091509250929050565b6000816040015160200151600014611cc257600060608360400151600001516001600160a01b03166370a0823160e01b30604051602401611bfb9190612cbe565b60408051601f198184030181529181526020820180517bffffffffffffffffffffffffffffffffffffffffffffffffffffffff166001600160e01b0319909416939093179092529051611c4e9190612c11565b6000604051808303816000865af19150503d8060008114611c8b576040519150601f19603f3d011682016040523d82523d6000602084013e611c90565b606091505b5091509150818015611ca3575060008151115b611cbf5760405162461bcd60e51b81526004016103f490612efe565b50505b602080830151015115611dc557600060608360200151600001516001600160a01b03166370a0823160e01b30604051602401611cfe9190612cbe565b60408051601f198184030181529181526020820180517bffffffffffffffffffffffffffffffffffffffffffffffffffffffff166001600160e01b0319909416939093179092529051611d519190612c11565b6000604051808303816000865af19150503d8060008114611d8e576040519150601f19603f3d011682016040523d82523d6000602084013e611d93565b606091505b5091509150818015611da6575060008151115b611dc25760405162461bcd60e51b81526004016103f490612efe565b50505b611dce826114e7565b60048190556040513391907f844435c59f7ccdf12de134e8f9b3b7d664fe9f06e3263680779599ba4097bc3f90611e06908690613302565b60405180910390a3505060045490565b6040518060400160405280600381526020017f61636c0000000000000000000000000000000000000000000000000000000000815250600281604051611e5c9190612c11565b908152602001604051809103902054600014611e8a5760405162461bcd60e51b81526004016103f490613124565b43600282604051611e9b9190612c11565b90815260405190819003602001902055611ebc63161b7d8160e21b83611768565b80604051611eca9190612c11565b604051908190038120907f7bc2a48a4a566e237a12186f19d985b0f76afc9d5290601edac19876253670c290600090a25050565b6001600160e01b0319811660009081526020819052604090819020805460ff19166001179055517fbf5e1f87f5ab65b58074cd29244d7c487a948983cda4b932e0f966b62bd34aca90611f52908390612de1565b60405180910390a150565b611f6683610c9b565b15611f835760405162461bcd60e51b81526004016103f4906130b6565b6001600160a01b03821660011415611fad5760405162461bcd60e51b81526004016103f490613294565b6001600160e01b0319831660008181526003602090815260408083206001600160a01b038781168086529190935292819020805473ffffffffffffffffffffffffffffffffffffffff19169286169290921790915551909133917fc62063b81f7036fd97a0dc546516e99f11004d2d76ca0fddd3866346c86e709190612034908690612cbe565b60405180910390a4505050565b8082018281101561038e5760405162461bcd60e51b81526004016103f4906132cb565b60008160000151826020015183604001518460600151856080015160405160200161208f9190612d0f565b604051602081830303815290604052805190602001208660a001518760c00151805190602001206040516020016114fa9796959493929190613389565b60405160009046906120e8903090839087908790602001612c56565b6040516020818303038152906040528051906020012091505092915050565b6001600160e01b0319831660009081526003602090815260408083206001600160a01b0380871685529252822054168015612207576001600160a01b03811660021415612158576001915050610f6d565b6040517f097c81080000000000000000000000000000000000000000000000000000000081526001600160a01b0382169063097c8108906121a190889088908890600401612df6565b602060405180830381600087803b1580156121bb57600080fd5b505af19250505080156121eb575060408051601f3d908101601f191682019092526121e891810190612743565b60015b6121f457612207565b801561220557600192505050610f6d565b505b506000949350505050565b6000612226836001600160a01b0316612296565b6122325750600061038e565b6040516020818451602086016000885af1801561226f573d801561225d57602081146122665761226d565b6001935061226d565b8251151593505b505b505092915050565b6000606063a9059cbb60e01b84846040516024016119fb929190612cf6565b3b151590565b6040805160608101909152806000815260006020820181905260409091015290565b604080518082019091526000808252602082015290565b803561038e8161345c565b600082601f8301126122f0578081fd5b81356123036122fe826133ec565b6133c5565b818152915060208083019084810160005b8481101561239a5781358701606080601f19838c0301121561233557600080fd5b61233e816133c5565b8583013561234b8161345c565b8152604083810135878301528284013567ffffffffffffffff81111561237057600080fd5b61237e8d89838801016123a5565b9183019190915250865250509282019290820190600101612314565b505050505092915050565b600082601f8301126123b5578081fd5b81356123c36122fe8261340c565b91508082528360208285010111156123da57600080fd5b8060208401602084013760009082016020015292915050565b600082601f830112612403578081fd5b81516124116122fe8261340c565b915080825283602082850101111561242857600080fd5b612439816020840160208601613430565b5092915050565b600060408284031215612451578081fd5b61245b60406133c5565b905081356124688161345c565b808252506020820135602082015292915050565b6000610100828403121561248e578081fd5b61249860c06133c5565b9050813581526124ab8360208401612440565b60208201526124bd8360608401612440565b604082015260a08201356124d08161345c565b606082015260c082013567ffffffffffffffff8111156124ef57600080fd5b6124fb848285016123a5565b60808301525060e082013560a082015292915050565b600060408284031215612522578081fd5b61252c60406133c5565b9050813567ffffffffffffffff8082111561254657600080fd5b81840160e0818703121561255957600080fd5b61256360e06133c5565b9250803583526020810135602084015261258086604083016122d5565b604084015261259286606083016122d5565b60608401526080810135828111156125a957600080fd5b6125b5878284016122e0565b60808501525060a081013560a084015260c0810135828111156125d757600080fd5b6125e3878284016123a5565b60c085015250509082526020830135908082111561260057600080fd5b5061260d8482850161247c565b60208301525092915050565b60008060006060848603121561262d578283fd5b83516126388161345c565b60208501519093506126498161345c565b80925050604084015190509250925092565b6000806040838503121561266d578182fd5b82356126788161345c565b9150602083013567ffffffffffffffff811115612693578182fd5b61269f8582860161247c565b9150509250929050565b600080604083850312156126bb578182fd5b82516126c68161345c565b6020939093015192949293505050565b600080602083850312156126e8578182fd5b823567ffffffffffffffff808211156126ff578384fd5b81850186601f820112612710578485fd5b8035925081831115612720578485fd5b866020606085028301011115612734578485fd5b60200196919550909350505050565b600060208284031215612754578081fd5b81518015158114610f6d578182fd5b600060208284031215612774578081fd5b5035919050565b6000806040838503121561278d578182fd5b8251915060208084015167ffffffffffffffff8111156127ab578283fd5b80850186601f8201126127bc578384fd5b805191506127cc6122fe836133ec565b82815283810190828501865b85811015612801576127ef8b8884518801016123f3565b845292860192908601906001016127d8565b5096999098509650505050505050565b60008060408385031215612823578182fd5b8235915060208301356128358161345c565b809150509250929050565b600060208284031215612851578081fd5b8135610f6d81613474565b6000806040838503121561286e578182fd5b823561287981613474565b915060208301356128358161345c565b60008060006060848603121561289d578081fd5b83356128a881613474565b925060208401356128b88161345c565b915060408401356128c88161345c565b809150509250925092565b6000602082840312156128e4578081fd5b813567ffffffffffffffff8111156128fa578182fd5b611760848285016123a5565b600060608284031215612917578081fd5b61292160606133c5565b82356003811061292f578283fd5b8152602083013561293f81613474565b602082015260408301356129528161345c565b60408201529392505050565b60006020828403121561296f578081fd5b813567ffffffffffffffff811115612985578182fd5b6117608482850161247c565b6000602082840312156129a2578081fd5b813567ffffffffffffffff8111156129b8578182fd5b61176084828501612511565b600080604083850312156129d6578182fd5b823567ffffffffffffffff808211156129ed578384fd5b6129f986838701612511565b93506020850135915080821115612a0e578283fd5b5061269f858286016123a5565b60008060408385031215612a2d578182fd5b823567ffffffffffffffff811115612a43578283fd5b612a4f85828601612511565b95602094909401359450505050565b600060208284031215612a6f578081fd5b5051919050565b6000815180845260208085019450848183028601828601855b85811015612ae2578383038952815160606001600160a01b03825116855286820151878601526040808301518282880152612acc83880182612aef565b9c89019c96505050928601925050600101612a8f565b5090979650505050505050565b60008151808452612b07816020860160208601613430565b601f01601f19169290920160200192915050565b80516001600160a01b03168252602090810151910152565b6000610100825184526020830151612b4e6020860182612b1b565b506040830151612b616060860182612b1b565b506001600160a01b0360608401511660a085015260808301518160c0860152612b8c82860182612aef565b60a085015160e087015280935050505092915050565b6000815183526020820151602084015260408201516001600160a01b0380821660408601528060608501511660608601525050608082015160e06080850152612bee60e0850182612a76565b60a084015160a086015260c0840151915084810360c0860152611a4e8183612aef565b60008251612c23818460208701613430565b9190910192915050565b7f61636c0000000000000000000000000000000000000000000000000000000000815260030190565b7f657263336b2d7631000000000000000000000000000000000000000000000000815260609490941b7fffffffffffffffffffffffffffffffffffffffff000000000000000000000000166008850152601c840192909252603c830152605c820152607c0190565b6001600160a01b0391909116815260200190565b6001600160a01b039384168152919092166020820152604081019190915260600190565b6001600160a01b03929092168252602082015260400190565b600060208252610f6d6020830184612a76565b600060608252612d356060830186612a76565b60208301949094525060400152919050565b901515815260200190565b90815260200190565b600060408201848352602060408185015281855180845260608601915060608382028701019350828701855b82811015612dd3577fffffffffffffffffffffffffffffffffffffffffffffffffffffffffffffffa0888703018452612dc1868351612aef565b95509284019290840190600101612d87565b509398975050505050505050565b6001600160e01b031991909116815260200190565b60006001600160e01b0319851682526001600160a01b038416602083015260606040830152611a4e6060830184612aef565b600060208252610f6d6020830184612aef565b600060808252612e4e6080830186612aef565b90508360208301526117606040830184612b1b565b6020810160078310612e7157fe5b91905290565b6000838252604060208301526117606040830184612aef565b6020808252601a908201527f6465706f7369743a2062616420746f6b656e2072656c65617365000000000000604082015260600190565b60208082526010908201527f71756575653a2062616420737461746500000000000000000000000000000000604082015260600190565b60208082526011908201527f71756575653a2062616420636f6e666967000000000000000000000000000000604082015260600190565b60208082526009908201527f61636c3a20617574680000000000000000000000000000000000000000000000604082015260600190565b60208082526015908201527f71756575653a2062616420646973707574652069640000000000000000000000604082015260600190565b60208082526010908201527f71756575653a20626164206e6f6e636500000000000000000000000000000000604082015260600190565b60208082526010908201527f71756575653a206261642064656c617900000000000000000000000000000000604082015260600190565b60208082526010908201527f71756575653a2062616420726573657400000000000000000000000000000000604082015260600190565b60208082526013908201527f71756575653a20626164206665652070756c6c00000000000000000000000000604082015260600190565b60208082526014908201527f71756575653a20626164207375626d6974746572000000000000000000000000604082015260600190565b6020808252600b908201527f61636c3a2066726f7a656e000000000000000000000000000000000000000000604082015260600190565b60208082526012908201527f71756575653a2062616420617070726f76650000000000000000000000000000604082015260600190565b60208082526022908201527f696e697469616c697a61626c653a20616c726561647920696e697469616c697a60408201527f6564000000000000000000000000000000000000000000000000000000000000606082015260800190565b60208082526010908201527f71756575653a2077616974206d6f726500000000000000000000000000000000604082015260600190565b60208082526017908201527f6465706f7369743a2062616420746f6b656e206c6f636b000000000000000000604082015260600190565b60208082526012908201527f71756575653a206e6f74207375626a6563740000000000000000000000000000604082015260600190565b6020808252601c908201527f63616c6c6461746173697a653a206c696d697420657863656564656400000000604082015260600190565b6020808252601c908201527f61636c3a20696e697469616c20726f6f74206d6973616c69676e656400000000604082015260600190565b6020808252600f908201527f61636c3a2062616420667265657a650000000000000000000000000000000000604082015260600190565b6020808252600e908201527f6d6174683a206f766572666c6f77000000000000000000000000000000000000604082015260600190565b600060208252610f6d6020830184612b33565b6000602082528251604060208401526133316060840182612ba2565b60208501519150601f19848203016040850152611a4e8183612b33565b600060208252610f6d6020830184612ba2565b60008482526001600160a01b038416602083015260606040830152611a4e6060830184612aef565b96875260208701959095526001600160a01b039384166040870152919092166060850152608084019190915260a083015260c082015260e00190565b60405181810167ffffffffffffffff811182821017156133e457600080fd5b604052919050565b600067ffffffffffffffff821115613402578081fd5b5060209081020190565b600067ffffffffffffffff821115613422578081fd5b50601f01601f191660200190565b60005b8381101561344b578181015183820152602001613433565b838111156106e65750506000910152565b6001600160a01b038116811461347157600080fd5b50565b6001600160e01b03198116811461347157600080fdfea2646970667358221220159ef2902329ed628bc3e13e6cacd4b47ae43273d5cee18a5ae94e2661388e8d64736f6c63430006080033d87da3e1f08043464b74e6b0861ccd8d8a5174e228287ac9b9f6efc1673da4ec7bc2a48a4a566e237a12186f19d985b0f76afc9d5290601edac19876253670c2",
  "linkReferences": {},
  "deployedLinkReferences": {}
}